:10000000180600200D100000091000000910000063
:1000100000000000000000000000000000000000E0
:1000200000000000000000000000000009100000B7
:10003000000000000000000009100000091000008E
:10004000091000000910000009100000091000004C
:10005000091000000910000009100000091000003C
:1000600009100000CD050000DD050000ED050000D1
:10007000FD0500000D0600001D060000091000002F
:10008000091000000910000009100000091000000C
:1000900009100000091000000910000009100000FC
:1000A00009100000091000000910000009100000EC
:1000B00009100000091000000910000010B5064CDE
:1000C0002378002B07D1054B002B02D0044800E019
:1000D00000BF0123237010BD0400002000000000B9
:1000E000481D0000084B10B5002B03D007490848F5
:1000F00000E000BF07480368002B00D110BD064B8D
:10010000002BFBD09847F9E7000000000800002012
:10011000481D0000481D0000000000000C4B1B683B
:10012000002B06D1EFF31083002B07D00022094BE0
:100130001A70074A136801331360704772B6BFF331
:100140005F8F0022044B1A700132024B1A70F0E7E5
:10015000200000202400002000000020084B1A6826
:10016000013A1A601B68002B09D1064B1B78002B43
:1001700005D00122044B1A70BFF35F8F62B670473F
:10018000200000202400002000000020F0B583B0F3
:1001900001AC012565700027A770257021000F2094
:1001A000064EB047802212028223DB059A61277037
:1001B000657021001C20B04703B0F0BDC1010000F4
:1001C00000B583B001AB80221A700A785A704A7861
:1001D0009A708A78DA701900014B984703B000BD15
:1001E000AD0F0000F0B5DE4657464E464546E0B539
:1001F00087B08046049116001F00002200230021D2
:100200008B463F2401202100009601975C46039411
:100210004446059413E02024641A0500E540A846EE
:1002200014E0009C019D121BAB415C464D462C43E3
:10023000A346039C45462C430394013925D320242F
:1002400064420C19E7D40500A540A84604008C4080
:10025000A14692185B4114001D00059E4F463E408A
:10026000B446049E47463E40B246664657463E4325
:1002700003D00600264332002B00009C019D9D42C6
:10028000DBD8CED19442D8D8CBE7039B584619008F
:1002900007B03CBC90469946A246AB46F0BD10B5AF
:1002A000490840230024814202D2180010BD1C00DE
:1002B000091A631C9BB28842F9D94023FF2CF4D859
:1002C00014800023F1E70000F0B583B00F001600A2
:1002D00008AA117804004C434022BC4202D9100005
:1002E00003B0F0BD002B14D1020008000021194C0E
:1002F000A04701003A0000230020174CA04700222D
:100300000123121A8B41120C1B041A433280002263
:10031000E5E70022012BF9D10A00002300210D4C52
:10032000A04702000B0000920193380000210A4C04
:10033000A047050080239B0140229842CFD8790F27
:10034000F800009A019BA047EA00821AD2B2520339
:100350002A43DBE7091C0000E501000010B582B06C
:1003600004000E4B1B78002B07D0002905D10B4B46
:100370005B78834210D01D200CE001A90C70122084
:10038000074B98471220074B9847044B5C7001229B
:100390001A70002002B010BD0020FBE728000020EA
:1003A000B10E0000410E0000404B984231D00AD9F6
:1003B0003F4B98424DD03F4B98425AD03E4B9842CB
:1003C00037D0002070473D4B98420CD03C4B9842B0
:1003D000F7D1012917D000295DD0022915D00329B2
:1003E00015D00020EEE7012907D0002951D00229BD
:1003F00005D0032905D00020E4E73248E2E732487F
:10040000E0E73248DEE73248DCE73248DAE73248F4
:10041000D8E7012907D000293FD0022905D00329B8
:1004200005D00020CEE72D48CCE72D48CAE72D485F
:10043000C8E7012907D0002931D0022905D00329B6
:1004400005D00020BEE72848BCE72848BAE728487E
:10045000B8E7012907D0002923D0022905D00329B4
:1004600005D00020AEE72348ACE72348AAE723489D
:10047000A8E7012907D0002915D0022905D00329B2
:1004800005D000209EE71E489CE71E489AE71E48BC
:1004900098E71E4896E71E4894E71E4892E71E48D4
:1004A00090E71E488EE71E488CE7C046000C0042CD
:1004B00000140042001800420010004200040042F4
:1004C00000080042030005000300060003000700C7
:1004D00002001100020012000200130002000D00D1
:1004E00002000E0002000F000200170002001800B8
:1004F000020019000300290003002A0003002B005A
:100500000300230003002000030021000300040077
:100510000200100002000C00020016000300280078
:100520000300220030B587B00B4B6A4632CB32C293
:1005300032CB32C2009B83420BD001239A00694622
:100540005258824206D00133062BF7D1002007B063
:1005500030BD0023D8B2FAE7A41C000070470000A9
:10056000F0B50A4B1B78002B0CD1094F094E0A4DF0
:100570000024DE515A1914600433182BF9D10122DA
:10058000024B1A708000024BC150F0BD2A000020BF
:100590002C0000205D0500005400002000B583B051
:1005A00009236A461370013353700133937001338A
:1005B000D3700133137101335371034B98476B466A
:1005C000185603B000BDC0462505000010B5024B0B
:1005D0001B680020984710BD2C00002010B5024B6E
:1005E0005B680120984710BD2C00002010B5024B1D
:1005F0009B680220984710BD2C00002010B5024BCC
:10060000DB680320984710BD2C00002010B5024B7A
:100610001B690420984710BD2C00002010B5024B28
:100620005B690520984710BD2C000020F0B5DE4620
:1006300057464E464546E0B591B005000C00160001
:1006400029600800D24B984705280DD007001337C2
:1006500022680523D20709D5180011B03CBC90468A
:100660009946A246AB46F0BD1927F1E72268173339
:100670009207F1D4C74AD16901301B3B83400B4339
:10068000D3610FA935239846F35C0B70FFB2380095
:10069000C14B98473800C14B98474346F05C002156
:1006A000BF4B9847F37A6B712C23F35CAB712D230E
:1006B000F35CEB71F37E2B722423F35C6B722B687B
:1006C00002931800B24B984705281DD01330002222
:1006D0000E2306A98C4663441A80338A98468023E9
:1006E000DB01984500D1C3E010D9C023DB01984558
:1006F00000D1B8E080231B02984500D066E10323B7
:100700000693002307930AE01920E0E780239B016A
:10071000984500D05AE1102306930F3B07933368A6
:100720000593F3689B4673690393337E04932E23EA
:10073000F35C9A4673689946002B00D1C5E080238C
:100740005B05994500D1A8E0737E002B02D0B37EF3
:10075000029A93730E2306AA944663441B88029A56
:100760009381059A5B461A43039B1A434B461A43EF
:1007700043461A43049B1B021A4353465B071A4322
:100780002F23F35C002B01D104331A43737E9B02A9
:100790002421715C49020B432621715C09020B4341
:1007A0002C21715C49040B432D21715C09040B431E
:1007B000B07AF17A084318433389FF2B00D1AAE0BD
:1007C000802149040A43184302998B689C46338C64
:1007D000718C0B431F000721634619403B000B43FC
:1007E00002998B60F369002B02D06E490A401A43CC
:1007F0003423F35C002B03D16B4B9B789B0701D513
:1008000080231A432968029FCB69002BFCD17860B2
:100810002968CB69002BFCD13A603B68F0221205B5
:100820001340E022D20493420AD0BB6807229343CC
:10083000BB60BA682523F15C1E3B0B401343BB60D1
:100840000EAB80221A7000225A70DA709A70B36B65
:100850000A93F36B0B93336C0C93736C02930D93AD
:1008600000270AAE66E008230693073B079356E786
:1008700033680593F3689B4673690393337E04934F
:100880002E23F35C9A4673689946002B19D0802377
:100890005B05994501D0002327E02F23F35C002B53
:1008A00000D051E7B36A1F00C0B2404B9847010027
:1008B0000E2206AB9C46624438003D4B984703002D
:1008C00013E008230693002307932F23F35C002BE8
:1008D0000FD0069B0093079B0E2206A98C4662440C
:1008E000316BB06A334FB8470300002B00D0B3E63A
:1008F0002AE7B36A1F00C0B22C4B98470100069B41
:100900000093079B0E2206A8844662443800294FB4
:10091000B8470300E9E7F37E002B00D154E78023BA
:10092000DB041A4350E72000234B984707E00137C8
:10093000042F0DD0F9B2BB0098590028F3D0431C06
:10094000F5D00EA90870000CC0B21C4B9847EEE71A
:100950000023EB602B616B61AB61EB612B62AB62DF
:100960006B620022EB85AB853033EA540133EA54E5
:100970000133EA540133EA542868054B98470400D0
:100980000F49104B9847A4000F4BE550002363E636
:100990002505000000080040B10E0000410E0000D7
:1009A0005D030000FFFFFFF000200041D50E0000B6
:1009B0009F020000C9020000A9030000AD0F000063
:1009C000690A00006105000054000020102306930E
:1009D00000230793A3E6C046C2791C23002A01D155
:1009E00018007047C28D92B2173B002AF8D10268F6
:1009F00011850221137E0B42FCD00023F0E782799F
:100A00001C23002A01D118007047828D92B2173B37
:100A1000002AF8D10268107E4007F4D5538BDBB270
:100A200058061DD0980703D5022353831833EAE7ED
:100A3000580703D5042353831A33E4E7D80703D5B3
:100A4000012353831233DEE7D80603D510235383E3
:100A50003233D8E79B0603D5202353832133D2E7D3
:100A6000138D0B800023CEE7F8B58000644BC5588A
:100A70002C68E369002BFCD1237EA67D1E40302329
:100A8000EB5C3122AF5C1F40F30722D5EB8D9BB2AC
:100A9000002B1CD0AA6A1378DBB2511CA9626979B9
:100AA00001290ED09BB2DB05DB0D2385EB8D013BCD
:100AB0009BB2EB85002B0CD1013323750133A37559
:100AC00007E0517809020B430232AA62EBE70123E7
:100AD0002375B30706D50223237500223133EA5468
:100AE000FB071ED4730768D5AB8D9BB2002B62D079
:100AF000638BDBB21A0718D47F2213405A0601D544
:100B000040229343002B33D09A0711D51A22322367
:100B1000EA54303B63837B074FD528006B699847C5
:100B20004BE02800EB689847DCE777221340E5E7C5
:100B30005A0705D51E223223EA542E3B6383EAE787
:100B4000DA0705D513223223EA54313B6383E2E707
:100B5000DA0605D542223223EA54223B6383DAE7E0
:100B60009B06D8D541223223EA54123B6383D2E755
:100B7000238DDB05DB0DDAB2696A0A706A6A511CE3
:100B800069626979012910D0AB8D013B9BB2AB85BD
:100B9000002B12D10433237500222E33EA54BB07F5
:100BA0000BD528002B69984707E01B0A53706B6A26
:100BB00001336B62E8E704232375F30604D51023A1
:100BC00023752376FB060ED4B30604D520232375A4
:100BD00023763B070BD4330704D5082323752376EC
:100BE000BB0608D4F8BD2800EB699847ECE728005D
:100BF000AB699847EFE72B6A28009847F2E7C046B1
:100C00005400002010B5072803D880000F4B1B5854
:100C10009F46002018E00E4B586815E00D4B597D9B
:100C20000907090F01310C480C4B98470CE0084BA1
:100C3000986809E0074B1B7F00209B0704D5044BF5
:100C4000186801E08020000210BDC046BC1C0000F6
:100C50004400002000100040006CDC02F11A00008B
:100C600000B585B00322104B9A60104A53681E21CC
:100C70008B4353600E4A137D62310B4313750D4B4A
:100C8000984701230C4A137101A94B6000234B7054
:100C900006220A700B724B720020084B9847002006
:100CA000074B984705B000BD0018004000400041C8
:100CB00000100040C50C000000080040E90C0000D6
:100CC000950D0000064A536980210B4353610122B0
:100CD000044B1A7019000B781342FCD17047C046C0
:100CE00000080040001C004070B504000D784B78EF
:100CF000002B02D08023DB001D434B7A002B02D057
:100D000080231B011D43486801280FD9431E184248
:100D100031D102282DD90223002201325B009842F2
:100D2000FBD880235B011D43120415430B7A002B73
:100D300002D080239B011D430426A6401149124A7C
:100D40004B6813401E42FBD1104B9847A4000D4B3B
:100D50009C466444226A80235B001A402A43226234
:100D60006146094A4B6813401E42FBD1084B984725
:100D700070BD0022D5E7000480239B001843054383
:100D8000D4E7C046001C0040FC0700001D01000025
:100D90005D01000010B504000422824009480A49A0
:100DA00043680B401A42FBD1084B9847A400054BFF
:100DB0009C466444226A80235B0013432362044BF5
:100DC000984710BD001C0040FC0700001D010000FA
:100DD0005D010000F8B50400042282401248134966
:100DE00043680B401A42FBD1114B98470E4F083411
:100DF000A400E0594007400F0E4B98470600E55904
:100E0000ED04ED0FE459240C0B4B9847002D07D14E
:100E1000012C07D921003000084B9847060001E05B
:100E20000134E6403000F8BD001C0040FC07000023
:100E30001D010000050C00005D010000F11A00001A
:100E400010B50400094B9847A000094B9C4660442C
:100E50008022835840210B4383504031403A43580D
:100E60001A42FCD0034B984710BDC0461D0100003C
:100E7000001C00405D01000010B50400094B9847BC
:100E8000A000094B9C4660448022835840218B433C
:100E900083504031403A43581A42FCD1034B9847A3
:100EA00010BDC0461D010000001C00405D01000097
:100EB00070B504000D00054B98472A780F231340A6
:100EC0002034A400024AA35070BDC046790E000031
:100ED000001C004010B50400064B98472034A400C5
:100EE000054BE4582407240F044B98472000044B7B
:100EF000984710BD1D010000001C00405D0100006E
:100F0000D50D000030B5D378002B35D11378802B68
:100F100029D01B0680246402234354780225AC4365
:100F200006D19478002C20D18024A4022343416070
:100F30005478013C012C1CD90D042D0CA024E4058F
:100F40002C431C4384620D0CD02424062C431C43E8
:100F50008462D478002C22D15B031CD59378012BBA
:100F60001ED0416117E00023D7E7C024E4022343E9
:100F7000DDE70D4C2340DFE741600C04240CA02387
:100F8000DB05234383620C0CD0231B0623438362BF
:100F9000D378002B03D15378013B012B02D930BD0C
:100FA0008161F8E78160FAE7FFFFFBFF10B50A00F7
:100FB000C1090023002905D14309DB018221C905AC
:100FC0008C4663441F242040012181401800014BBE
:100FD000984710BD050F00007047000010B5054B85
:100FE0009847054B9847054B9847054B9847054B45
:100FF000984710BD610C00008D010000D90F000062
:10100000D90F0000D90F0000FEE7000010B5174A05
:10101000174B9A4211D01A00164B9A420DD2164A1B
:1010200003339B1A9B0801339B00002210480F4991
:101030008C58845004329A42FAD1104A104B9A428A
:101040000AD2D3430E495B1803218B4304339B1808
:10105000002102C29342FCD10A4AFF210A4B8B4372
:1010600093600A4B98470A4B9847FEE7481D0000DB
:1010700000000020040000200400002004000020E4
:101080001402002000ED00E0000000005D1C0000E4
:101090009510000010B582B0802212028223DB0579
:1010A0009A61184B1A68531C18D08223DB058021E3
:1010B0004905596006245C201C5499611B6ADB00B9
:1010C000DB0F6946CB71CB79002B07D080239B01C6
:1010D000196881F308880C498B6010470B4B9847BF
:1010E0000B4B9847802212028223DB055A61094C80
:1010F000A0470028FCD00120074B9847074CA04789
:10110000FDE7C0460420000000ED00E0DD0F000018
:101110008D1500001517000021110000ED110000D1
:10112000012800D07047024A024B1A60FAE7C04615
:101130000C1D0000C4000020F0B585B01F4B1B78CB
:10114000002B36D004291BD0022922D000784D0074
:1011500004AB5A190B3A002D17D101A830230370A4
:1011600048334370013149006E3B43544519033302
:10117000EB700231124B1B68DB68984705B0F0BD7D
:1011800000684D0004AB5A190B3A00240F26302793
:1011900008E00088F5E7373313700009013A01349D
:1011A000AC42DAD233000340092BF4D83B4313702E
:1011B000F3E7034B1B68DB689847DFE7500000202C
:1011C000C400002072B6BFF35F8F0022054B1A7077
:1011D000EFF30883044A1360036883F308884368C5
:1011E0001847704700000020C8000020F8B5DE4610
:1011F00057464E464546E0B50022CC4B1A607A323F
:10120000CB4B1A70CB4B9A46CB4B9B46CB4CC84B27
:1012100098465B461B681B69402150469847C84B5F
:101220001860C64B52461A600022C64B1A6000284E
:10123000EFD0C24DD8E0C44B1B78002B72D1BC4B11
:101240001B78532B75D0522B00D1E7E04F2B00D1E8
:10125000EDE0482B00D1F0E0572B00D1F3E06F2BED
:1012600000D1F6E0682B00D1F9E0772B00D1FFE048
:10127000472B00D105E1542B00D111E14E2B00D1B9
:1012800018E1562B00D098E0AB4B99461B68DB6801
:101290000121AE4898474B461B68DB680421AC48E7
:1012A00098474B461B68DB680121AA4898470022F3
:1012B000A44B1A60A84AA14B1A60A2481A000368FE
:1012C000591C016013685E1C16601B78002BF6D158
:1012D000994B99461B68DB68A04898474B461B68AA
:1012E000DB6801219B4898470022964B1A609C4A74
:1012F000924B1A6093481A000368591C01601368E6
:101300005E1C16601B78002BF6D18B4B99461B6830
:10131000DB68944898474B461B68DB68022192487B
:1013200098474AE0844B1B68DB6802218E48984747
:1013300085E7834B1B68834A126893422ED97F4806
:1013400001680131016001327E490A6087490968FC
:101350009B1A8B4200D90B00854A13600021854AF5
:101360001170002B1AD07149744A764F8148804B16
:101370009C4613681B780E6833700B6801330B6052
:101380001368013313603B6801333B60037801331A
:10139000DBB2037066463668B342EAD3694A136823
:1013A000013B1360654A1368013B1360714B1B7866
:1013B0006E4A11688B4229D3C0467A225C4B1A7060
:1013C00000226A4B1A60604B1B78002B00D080E033
:1013D0002368013323605B4A136801331360584A62
:1013E00012689A4200D814E72B681B78FF2BF2D0C2
:1013F000232B00D11FE71A00303A092A70D85B4925
:101400000A681201303B13430B60E1E7C91A474BEE
:101410001868494B1B689B699847CDE7534B19687F
:10142000424B1868444B1B685B699847C5E73F4BC4
:101430001B684E4A12681A70BFE73C4B1B684B4A48
:1014400012681A80B9E7394B1B68484A12681A605B
:10145000B3E7364B18680121474B9847ADE743483F
:10146000324B1B681B8803600221434B9847A4E75B
:101470002E4B1B681B683D48036004213E4B984778
:101480009BE73A4B18683D4B98473D4B1B6883F3ED
:10149000088801223B4B1A70BFF35F8F62B68CE75E
:1014A0000122294B1A70244B1B68DB6802212E484D
:1014B000984782E7244B1B78002B03D00022224B55
:1014C0001A707AE71C4B1B68DB6802212648984794
:1014D000F4E7194B1B68DB6801212B48984777E735
:1014E0001A00413A052A06D820490A681201373BFA
:1014F00013430B606CE71A00613A052A06D81B49B2
:101500000A681201573B13430B6061E72C2B05D08F
:10151000424613700022154B1A6059E7134B034AD9
:101520001968116000221A6052E7C046C00000200E
:101530007800002080000020C400002074000020FB
:10154000700000207C00002050000020E81C0000FB
:10155000DC1C0000EC1C0000F11C0000F01C000072
:10156000FD1C0000FC1C0000E41C0000CC0000205E
:10157000D00000206C00002039110000C5110000CF
:10158000C800002000000020081D000030B593B006
:101590008023DB05009300230193FF2269460A8123
:1015A0008B72CB7201222C21684642540131425485
:1015B0002D328354013283540C930532835401320B
:1015C00083540E930F93059300220382C2760793F0
:1015D0000384438402762423C25442761323837601
:1015E0001333C254013BC254E1235B020A93C42368
:1015F0009B030393254B1093254B1193254D264CAC
:101600006A4626492800A0470028F9D1214D2C68B8
:101610002000234B98471F2318401E3B8340214A3C
:1016200013602A68D369002BFCD12368022213437C
:101630002360184B1B68DA69002AFCD159688022A4
:1016400052020A435A600121124AD171DA69002A12
:10165000FCD1DA69002AFCD15968802292020A433F
:101660005A6001210B4A9171DA69002AFCD10023EA
:101670000D4A13700D4A13700D4A13700D4A137002
:101680000D4A13700D4A137013B030BD03002A00C9
:1016900003002B00DC0000202D0600000014004297
:1016A0009D05000000E100E0D40000209201002030
:1016B000D5000020D80000209301002090010020D8
:1016C00010B581B20248034B9847012010BDC046B7
:1016D000DC000020D9090000024B187E4007C00F33
:1016E0007047C0460014004210B582B0064CA047B7
:1016F0000028FCD06B469C1D21000448044B9847F1
:10170000208802B010BDC046D9160000DC000020C1
:10171000FF09000010B5064B98470023002801D1AF
:10172000180010BD034B9847233843424341F7E765
:10173000D9160000E9160000F8B50F1E07D04618AC
:101740000400044D2078A8470134A642FAD138009D
:10175000F8BDC046C116000010B50400024B984702
:101760002070012010BDC046E9160000000248406C
:101770000823084906E04000484080B2013B9BB284
:10178000002B05D002B2002AF5DB400080B2F5E75D
:101790007047C04621100000F0B5DE4657464E4661
:1017A000C0B582B007000E1E2AD00024002301938A
:1017B000194B9A46194B9946194B9B4608E07B1CDE
:1017C0003D701F00802E16D00134A4B2A6421BD05B
:1017D000D047C5B24B461B78002B13D10199280086
:1017E000D84701900F4B1B88002BE8D10E4B1B787C
:1017F000002BE9D0E3E70B490A88013A0A80E3E7C6
:10180000019101E001230193019802B01CBC9146B3
:101810009A46A346F0BDC046E9160000900100209C
:101820006D170000D600002091010020F0B585B0B2
:1018300005000191022103A8174CA0478021280030
:10184000A0470500154B1F78002F03D00027380054
:1018500005B0F0BD124EB047000284B2B047241864
:10186000A4B20E4B1B78012BF1D0A54204D103ABDF
:101870001B78019A934203D018200A4B9847E6E759
:10188000DB4303AA5278DBB29A42F5D10620054B1E
:1018900098470127DBE7C046991700009001002018
:1018A000E9160000C1160000F0B5DE4657464E4668
:1018B0004546E0B585B00500894600224A4B1A70BE
:1018C000002928D10132494B1A70494F464E340045
:1018D000B8473378002B2CD1C0B2432803D07128ED
:1018E00079D01528F4D1039501230293414B9B46EF
:1018F000414B98461C003D4B9A460120D847029D1B
:101900002800D847E843C0B2D847039D802700236A
:1019100001932E002EE0384B19800022334B1A70B1
:101920000B005B06D1D00B0080337F329343994686
:10193000CBE7002323702E4B9847C0B22378002BAF
:10194000CBD00022284B1A70002045E00022264B05
:101950001A70002040E03578013B238001362800D2
:10196000244B984701992800244B98470190013F48
:10197000002F08D043461B88002BECD15246157827
:10198000002DECD0E7E70500000AC0B2194EB047C1
:10199000E8B2B047164B9847134B1B78002BD5D1B4
:1019A000FF231840062809D1029B0133DBB20293C2
:1019B0004B46803B9946039B803303934B46002B59
:1019C0009BD104200B4B9847094B98470022074BAB
:1019D0001A70012000E0002005B03CBC90469946FA
:1019E000A246AB46F0BDC046900100209101002008
:1019F000E9160000C1160000D60000206D17000097
:101A0000F0B5C64600B582B001900C0006202F4B01
:101A100098470A212E4B9847009000222D4B1A70B0
:101A2000002C06D101322C4B1A7064252B4E2C4F02
:101A30000EE02C4B1C800022274B1A70F5E7013C6E
:101A4000B847002808D1002CF9D1013D002D3BD02A
:101A50004320B047009CF3E7002CF6D0019E012400
:101A6000214F1C4D214B984612E00022194B1A7051
:101A7000002002B004BC9046F0BD21003000C047F9
:101A8000144B1B78002B12D1012815D0002809D047
:101A9000B8472B78002BE8D1FF2318400128ECD061
:101AA00004280DD000220C4B1A700120E1E700221F
:101AB000084B1A700020DCE70134E4B28036E7E717
:101AC0000620064B9847EDE70020D2E7050C000002
:101AD000F11A00009001002091010020C1160000C1
:101AE000D9160000D6000020E91600002D180000CD
:101AF000002243088B4274D303098B425FD3030A4D
:101B00008B4244D3030B8B4228D3030C8B420DD35F
:101B1000FF22090212BA030C8B4202D312120902ED
:101B200065D0030B8B4219D300E0090AC30B8B422B
:101B300001D3CB03C01A5241830B8B4201D38B03D9
:101B4000C01A5241430B8B4201D34B03C01A52417E
:101B5000030B8B4201D30B03C01A5241C30A8B42C1
:101B600001D3CB02C01A5241830A8B4201D38B02AC
:101B7000C01A5241430A8B4201D34B02C01A524150
:101B8000030A8B4201D30B02C01A5241CDD2C309C2
:101B90008B4201D3CB01C01A524183098B4201D33E
:101BA0008B01C01A524143098B4201D34B01C01A29
:101BB000524103098B4201D30B01C01A5241C308A1
:101BC0008B4201D3CB00C01A524183088B4201D310
:101BD0008B00C01A524143088B4201D34B00C01AFC
:101BE0005241411A00D20146524110467047FFE768
:101BF00001B5002000F006F802BDC0460029F7D06C
:101C000076E770477047C046F0B5CE4647461504A4
:101C10002D0C2E0080B50704140C3F0C9946030CC4
:101C20007E435D43674363437F19340CE4199C464C
:101C3000A54203D980235B029846C4444B465143D6
:101C400043433604360C250C24046544A419591862
:101C5000491920000CBC90469946F0BD70B500268D
:101C60000C4D0D4C641BA410A64209D1002600F0B7
:101C70005BF80A4D0A4C641BA410A64205D170BD46
:101C8000B300EB5898470136EEE7B300EB5898479E
:101C90000136F2E7341D0000341D0000341D000041
:101CA000381D00000004004200080042000C004201
:101CB000001000420014004200180042160C000000
:101CC000120C0000120C0000440C0000440C000038
:101CD0002E0C00001C0C0000340C0000322E31369B
:101CE000000000000A0D0000760000002000000047
:101CF00046656220323020323032310032333A31A0
:101D0000393A3134000000003E000000C1160000E6
:101D1000E9160000D9160000391700005917000015
:101D2000A9180000011A0000F8B5C046F8BC08BCAC
:101D30009E467047E5000000F8B5C046F8BC08BCF8
:081D40009E467047BD00000043
:041D48000100000096
:00000001FF
